:020000040000FA
:1000000080030010650100006F0100007101000015
:10001000730100007501000077010000000000007E
:100020000000000000000000000000007901000056
:100030007B010000000000007D0100004508000079
:1000400081010000810100008101000081010000A8
:100050008101000081010000810100008101000098
:100060008101000081010000810100008101000088
:1000700081010000810100001108000081010000E1
:100080008903000081010000CD0300008101000010
:1000900081010000810100008101000000000000DA
:1000A0008101000081010000810100008101000048
:1000B000810100000000000000000000810100003C
:1000C00000F002F800F03EF80CA030C80838241800
:1000D0002D18A246671EAB4654465D46AC4201D180
:1000E00000F030F87E460F3E0FCCB6460126334274
:1000F00000D0FB1AA246AB4633431847FC0700006A
:100100001C080000103A02D378C878C1FAD8520708
:1001100001D330C830C101D504680C6070470000BD
:100120000023002400250026103A01D378C1FBD813
:10013000520700D330C100D50B6070471FB51FBDFB
:1001400010B510BD00F0E0F81146FFF7F7FF00F022
:100150009FFB00F0F8F803B4FFF7F2FF03BC00F0D8
:10016000FFF800000A4880470A4800477047FEE74A
:10017000FEE7FEE7FEE7FEE7FEE7FEE7FEE7FEE757
:10018000FEE7000004480549054A064B7047000099
:100190006D010000C100000080000010800300100D
:1001A0008001001080010010002203098B422CD333
:1001B000030A8B4211D300239C464EE003460B43B7
:1001C0003CD4002243088B4231D303098B421CD319
:1001D000030A8B4201D394463FE0C3098B4201D30B
:1001E000CB01C01A524183098B4201D38B01C01A43
:1001F000524143098B4201D34B01C01A52410309BA
:100200008B4201D30B01C01A5241C3088B4201D368
:10021000CB00C01A524183088B4201D38B00C01A15
:10022000524143088B4201D34B00C01A5241411A3C
:1002300000D201465241104670475DE0CA0F00D01F
:100240004942031000D34042534000229C46030918
:100250008B422DD3030A8B4212D3FC22890112BA9E
:10026000030A8B420CD3890192118B4208D3890176
:1002700092118B4204D389013AD0921100E089098E
:10028000C3098B4201D3CB01C01A524183098B426F
:1002900001D38B01C01A524143098B4201D34B0158
:1002A000C01A524103098B4201D30B01C01A5241BB
:1002B000C3088B4201D3CB00C01A524183088B4242
:1002C00001D38B00C01A5241D9D243088B4201D3CB
:1002D0004B00C01A5241411A00D2014663465241B6
:1002E0005B10104601D34042002B00D549427047B5
:1002F00063465B1000D3404201B50020C046C046B3
:1003000002BD704770477047754600F025F8AE464D
:10031000050069465346C008C000854618B020B5A0
:10032000FFF730FF60BC00274908B6460026C0C56D
:10033000C0C5C0C5C0C5C0C5C0C5C0C5C0C5403D9D
:1003400049008D46704710B50446C046C046204659
:10035000FFF701FF10BD0000004870471C000010AF
:1003600001491820ABBEFEE72600020070470000DE
:1003700010B5044800F0DFF80520000700F0CCF8C5
:1003800010BD00000040044000200E490968012211
:1003900082401207120F1140002901D0012100E014
:1003A000002100290CD008480088401C064908801C
:1003B000002001218140034A116000BF114688607E
:1003C0007047000000C00040020000107047F8B500
:1003D0000746086815460C46401C0860384600F081
:1003E0000AF826682868384600F005F82868216869
:1003F000B142F3D1F8BD00213D22120100E0891D78
:100400000368DB0701D19142F9DB0068C00700D126
:1004100000BE7047F8B51D4616460C460746FFF766
:10042000EAFF2068401C206035603846FFF7E3FF94
:10043000F8BD000003490A68034B184082430A6074
:100440007047000080800440FCBF1D0003490A681B
:10045000034B184002430A6070470000808004404C
:10046000FCBF1D000348006A0007410F01208840BF
:10047000704700000080044010B5FFF7F3FF01460D
:100480000148FFF79BFE10BD00127A0070B50025F1
:100490000446002800DC00BE012C08DC00F02CF82B
:1004A000002804D100F032F8002800DC00BE802CC7
:1004B00002DD802400E06D1C6410FCD106480021A0
:1004C0004162026A0E239A436B071B0F1A430262B2
:1004D00041620121416270BD0080044010B50028D6
:1004E00000DC00BE01460348FFF768FEFFF7CEFFC1
:1004F00010BD000000127A0003490320096880043F
:10050000884300D00120704700C0034001480069C3
:10051000C0B2704700C0034010B54020FFF796FFFF
:1005200010BD70B51C4694400D042E180125954051
:10053000AD00745170BD10B501208004FFF786FF37
:1005400010BD30B50C290CD3012A0AD10B460C3B47
:1005500001249C40034680331D6824012409A543DF
:100560001D601202120A8900425030BD70B50A4C5B
:1005700005460246002307492046FFF74BFF2A465F
:100580000023143203492046FFF744FF2015FFF7EC
:1005900051FF70BD1800001024400540CB070246F3
:1005A00010B5DB0F203202490248FFF733FF10BDC0
:1005B0001800001024400540024610B518320349C7
:1005C0000348FFF704FFC007C00F10BD180000105C
:1005D00024400540CB07024610B5DB0F1432024918
:1005E0000248FFF717FF10BD180000102440054017
:1005F000024610B5303202490248FFF7E8FE10BD4E
:1006000018000010244005400B02024610B51B0ADA
:100610000C3202490248FFF7FDFE10BD1800001021
:100620002440054010B50846FFF710FF10BD00003C
:1006300010B54F48FFF752FF00BF4D4C4D48844264
:1006400001D901200EE02002000A401E4A494861FB
:100650000321081F00F0A0F8002047498861072007
:10066000086100200028E8D14448FFF77FFF0120FF
:100670008002FFF7EBFE00214048FFF7ABFFFF20B1
:100680000130FFF7E3FEFF2101313D48FFF7CAFFCC
:100690007D20C0003A49C86000BF08460021012201
:1006A0008C00034618331A5100BF002034494969B1
:1006B0004200831801229A401143314A516100BF20
:1006C0001020012181402F4A116000BF00BF2C483B
:1006D0004068012108432A49486000BFFFF748FEEF
:1006E000002211462848FFF72CFF0022012126484E
:1006F000FFF727FF002202212348FFF722FF0022F5
:1007000003212148FFF71DFF002204211E48FFF7A7
:1007100018FF002205211C48FFF713FF00220621C5
:100720001948FFF70EFF002207211748FFF709FFBE
:10073000002208211448FFF704FF00220921124873
:10074000FFF7FFFE0A2211460F48FFF7FAFE0A22C2
:100750000B210D48FFF7F5FE00200C49C8630C483B
:1007600000680005000D0B4908430949086010BDE9
:1007700040420F00FFFFFF0000E000E000400540A6
:1007800000C0004000E100E000400440C03F0050D5
:1007900000800050FF03000010B5002819DA1A4A43
:1007A00003071B0F083B9B089B00D2588307DC0EF6
:1007B000FF23A3409A438B071B0E8407E40EA3403C
:1007C0001A43114B0407240F083CA408A4001A5133
:1007D00018E00E4A03231B02D21883089B00D2584C
:1007E0008307DC0EFF23A3409A438B071B0E84076D
:1007F000E40EA3401A43054B032424021B1984086A
:10080000A4001A5110BD00001CED00E000E100E062
:1008100010B50A48FFF7D0FE044621460748FFF707
:10082000BDFEE007C00F002806D001210348FFF7F6
:10083000EBFE01200249087010BD00000040054099
:100840001400001070B50F480088401C0D49088046
:100850000D48FFF7CDFE0D4908600521090700226C
:10086000062013045C18012383409B00E3580124F5
:10087000844063401404651801248440A4002B5173
:1008800000BF70BD000000100040054004000010D3
:10089000FFF7CEFEFFF7E6FD13490860FFF7ECFD1A
:1008A0001249086000230622194605200007FFF7B9
:1008B00038FE01230222002105200007FFF731FE48
:1008C00001230422002105200007FFF72AFE01234F
:1008D000052200211007FFF724FE03E00448006909
:1008E00004490880FAE700000C0000101000001016
:1008F00000C00040080000101809000000000010AF
:100900001C00000004010000340900001C0000105D
:10091000640300002001000000000000000000004F
:1009200000000000000000000000000000000000C7
:0409300000000000C3
:04000005000000C136
:00000001FF
